:020000040800F2
:100000000080012051160008BD150008C515000824
:10001000CD150008D5150008DD150008000000000A
:10002000000000000000000000000000E5150008CE
:10003000F315000800000000011600080F16000864
:10004000A1160008A1160008A1160008A1160008B4
:10005000A1160008A1160008A1160008A1160008A4
:10006000A1160008A1160008A1160008A116000894
:10007000A1160008A1160008A1160008A116000884
:10008000A1160008A1160008A1160008A116000874
:10009000A1160008A1160008A1160008A116000864
:1000A000A1160008A1160008A1160008A116000854
:1000B000A1160008A1160008A1160008A116000844
:1000C000A1160008A1160008A1160008A116000834
:1000D000A1160008A1160008A1160008A116000824
:1000E0001B160008A1160008A1160008A11600089A
:1000F000A1160008A1160008A1160008A116000804
:10010000A1160008A1160008A1160008A1160008F3
:10011000A1160008A1160008A1160008A1160008E3
:10012000A1160008A1160008A1160008A1160008D3
:10013000A1160008A1160008A1160008A1160008C3
:10014000A1160008A1160008A1160008A1160008B3
:10015000A1160008A1160008A1160008A1160008A3
:10016000A1160008A1160008A1160008A116000893
:10017000A1160008A1160008A11600080000000042
:08018000A1160008A1160008F9
:1001880010B5054C237833B9044B13B10448AFF3C9
:1001980000800123237010BD14000020000000001F
:1001A8007055000808B5034B1BB103490348AFF36A
:1001B800008008BD000000001800002070550008ED
:1001C80053B94AB9002908BF00281CBF4FF0FF31B6
:1001D8004FF0FF3000F088B9ADF1080C6DE904CE9E
:1001E80000F006F8DDF804E0DDE9022304B070470A
:1001F8002DE9F047089D8E4604468846002B4AD1D3
:100208008A42174662D9B2FA82F64EB1C6F1200385
:1002180001FA06F820FA03F3B74043EA0808B440A5
:100228004FEA174E1FFA87FCB8FBFEF1230C0EFBB2
:10023800118843EA084301FB0CF29A4209D9FB18DA
:1002480001F1FF3080F0EA809A4240F2E7800239FB
:100258003B449A1AA3B2B2FBFEF00EFB102243EA0B
:10026800024300FB0CFC9C4509D9FB1800F1FF3246
:1002780080F0D6809C4540F2D3803B44023840EA67
:100288000140A3EB0C0300211DB1F3400022C5E996
:100298000032BDE8F0878B4205D90DB1C5E90001F0
:1002A80000210846F5E7B3FA83F1002946D17345E2
:1002B80002D3824200F20581841A6EEB0302012008
:1002C8009046002DE5D0C5E90048E2E7002A00F095
:1002D8009080B2FA82F6002E40F0A4808A1A030CAD
:1002E8004FEA174E80B2BCB20121B2FBFEFC0EFBF6
:1002F8001C2243EA024304FB0CF29A4207D9FB187A
:100308000CF1FF3802D29A4200F2E080C4469B1AF0
:10031800B3FBFEF20EFB123340EA034302FB04F484
:100328009C4207D9FB1802F1FF3002D29C4200F22E
:10033800CA8002461B1B42EA0C40A5E7C1F1200611
:100348008B4022FA06F71F430EFA01F420FA06F34F
:100358002EFA06FE4FEA1749234300FA01F81FFA5E
:1003680087FCBEFBF9F01C0C09FB10EE44EA0E44B6
:1003780000FB0CFEA64502FA01F209D93C1900F16E
:10038800FF3A80F09C80A64540F2998002383C44B0
:10039800A4EB0E041FFA83FEB4FBF9F309FB134424
:1003A8004EEA044403FB0CFCA44508D93C1903F1AC
:1003B800FF3E80F08280A4457FD9023B3C4443EA5B
:1003C8000040A4EB0C04A0FB02EC64457346E14634
:1003D80062D35FD05DB1B8EB030264EB090404FAA1
:1003E80006F622FA01F31E43CC40C5E90064002159
:1003F8004FE7B1FBF2FC010C41EA0E4180B240EA42
:1004080001423B4638463C46B846BE462026B1FB2C
:10041800F7F1A2EB080241EA0C4166E7014618E74A
:1004280010462CE7C6F120022EFA02F3B740B1407D
:1004380020FA02F24FEA174E0A43B3FBFEF8BCB2A9
:100448000EFB1833110C41EA034108FB04F9B040D4
:1004580089454FEA104380B23ED9791808F1FF3C2C
:1004680001D289451FD8A1EB0901B1FBFEF909FBAF
:1004780004F80EFB191192B242EA0142424529D210
:10048800BA1809F1FF31C4D24245C2D2A9F102011A
:100498003A44BEE7F0459DD2BEEB02036CEB070C75
:1004A8000138E14696E7A7EB09094944A8F1020C8F
:1004B800B1FBFEF909FB04F8DBE773467FE750461A
:1004C80066E70846FDE63B44023A33E7ACF1020C26
:1004D8003B441CE749469CE7A1EB0901C446B1FB34
:1004E800FEF909FB04F8C4E7704700BF80B500AF08
:1004F80001224FF48071024802F066FE00BF80BD01
:100508000004004880B500AF00224FF48071024813
:1005180002F05AFE00BF80BD0004004880B586B0D6
:1005280000AF78600023FB8200233B617B68012BCE
:1005380002D1154B3B6109E07B68022B02D1134BBA
:100548003B6103E000F004FE002318E0386901F085
:1005580079FC0346FB73FB7B002B01D000230EE0E4
:100568000A21386901F028FD0346FB73FB7B002B49
:1005780004D1386901F0F8FD0346FB82FB8A18466E
:100588001837BD4680BD00BF78000020DC00002081
:1005980080B485B000AFF860B9607A60FB68BA686B
:1005A8005A617B680D4AA2FB0323DA08FB681A61CB
:1005B800FB681B69002B02D1FB6801221A61FB68EA
:1005C80000229A60FB680022DA60FB6800221A7039
:1005D80000BF1437BD465DF8047B7047CDCCCCCC4A
:1005E80080B584B000AF78607B681B78022B40D060
:1005F800022B40DC002B02D0012B09D03BE001F09C
:10060800BDF802467B685A607B6801221A7035E0A3
:1006180001F0B4F802467B685B68D31A092B2CD921
:100628007B685B691846FFF779FF0346FB817B68A7
:100638009A68FB891A447B689A607B68DB685A1C55
:100648007B68DA6001F09AF802467B685A607B683A
:10065800DA687B681B699A420FD37B689A687B6863
:10066800DB68B2FBF3F27B689A617B6802221A703E
:1006780003E0012303E000BF00E000BF00231846A9
:100688001037BD4680BD80B483B000AF78607B680A
:100698009B6918460C37BD465DF8047B704700001F
:1006A80080B58AB000AFBA607B600346FB730B4627
:1006B800BB73002387F8273000233B620023FB61CC
:1006C8000023FB760023BB7601F058F87861FB7BAA
:1006D800002B07D0BA6801212F48FFF759FF0023E4
:1006E800FB7601E00123FB76BB7B002B07D0BA68C1
:1006F80002212A48FFF74CFF0023BB7626E001239E
:10070800BB7623E0FB7E83F00103DBB2002B0BD02A
:100718002148FFF765FF0346002B05D01E48FFF769
:10072800B2FF38620123FB76BB7E83F00103DBB2A4
:10073800002B0BD01948FFF753FF0346002B05D0B9
:100748001648FFF7A0FFF8610123BB76FB7E83F014
:100758000103DBB2002BD5D1BB7E83F00103DBB2F2
:10076800002BCFD1FB7B002B03D03A6A7B689A42DF
:1007780006D8BB7B002B08D0FA697B689A4204D95B
:10078800012387F82730FFF7B1FE97F8273018467E
:100798002837BD4680BD00BF300000204C00002037
:1007A80080B586B000AF786039600023FB757B6840
:1007B800002B02DD7B68042B01DD00235EE00023B3
:1007C800BB827B68013B032B18D801A252F823F0A7
:1007D800E9070008F1070008F7070008FF07000805
:1007E8004FF48073BB8209E04023BB8206E04FF4DC
:1007F8000073BB8202E02023BB8200BF7B68013B01
:100808003B61BB8A19461F4802F0C6FC03461946DD
:100818001D4A3B6913440A461A701B4A3B69134434
:100828001A781A493B690B441B789A4206D000F0A3
:10083800A5FF024616493B6941F8232000F09EFFB8
:10084800F860134A3B6952F82330FA68D31ABB6040
:10085800BA683B689A4207D90B4A3B6913441B782C
:10086800002B01D10123FB75074A3B691344197812
:10087800064A3B6913440A461A70FB7D1846183726
:10088800BD4680BD0008004800000020040000208C
:100898006800002090B58FB000AF044608461146A6
:1008A8001A462346FB710346BB710B467B71134600
:1008B8003B71FB793B74BB797B74002387F8373035
:1008C800002387F82730002387F82630002387F88D
:1008D8002530002387F82430002387F823300023AD
:1008E80087F8223097F827303B7397F826307B73C8
:1008F80000233B81002387F83630002387F8353002
:1009080000233B6316E007F110023B6B13441B788E
:10091800002B0CD03B6BDAB297F83630591C87F8AD
:1009280036100132D2B238333B4403F8302C3B6BDB
:1009380001333B633B6B012BE5DD00F01FFFF861E2
:100948000023FB623DE00023BB622CE007F10802B4
:10095800BB6A13441B78184607F10802BB6A1344A4
:100968001B785C1EB96CFFF71BFF03461A4604F19F
:1009780038033B4403F82C2C07F10802BB6A1344E4
:100988001B78013B38333B4413F82C3C002B07D031
:10099800FB6A012B04D197F83530013387F83530DD
:1009A800BB6A0133BB6297F83630BA6A9A42CDDB2C
:1009B800FB6A002B02D1642000F0ECFEFB6A0133D5
:1009C800FB62FB6A012BBEDD00F0D8FEB861BA6994
:1009D800FB69D31A7B6197F83530002B05D00123CA
:1009E80087F83730FFF782FD01E0FFF78BFD97F8B6
:1009F800373018463C37BD4690BD000080B582B000
:100A080000AF0346FB80FB88B3F5005F0ED1094BAE
:100A180001221A7001224FF48071074802F0D4FBBA
:100A280000224FF48071044802F0CEFB00BF083763
:100A3800BD4680BDB403002000040048B0B5A4B092
:100A480002AF07F1200328220021184604F05FFDB9
:100A58002823C7F884300223C7F8803000F01EFE30
:100A680000F080F800F0CFF800F0D2FA00F0F6F8C5
:100A780000F0CEF900F03CFA00F06AFA00F098FABB
:100A880000F006FA00F060F9344B07F10C041D463B
:100A98000FCD0FC42B682360002387F87F306423B1
:100AA800BB6740F6B8337B67012387F873300123AF
:100AB80087F8723000F062FEF86697F8721097F8BF
:100AC80073007B6FBA6FFFF7EBFD034687F87F3043
:100AD80000F054FEB866BA6EFB6ED31A7B6601232B
:100AE80087F86330012387F86230012387F8613083
:100AF800012387F860306423FB6540F6B833BB6593
:100B0800002387F8573000F039FE386597F86300FE
:100B180097F8621097F8612097F86040FB6D009392
:100B28002346FFF7B7FE0346002B14BF012300231B
:100B380087F8573000F022FEF864FA6C3B6DD31A40
:100B4800BB64074A3B1D92E8030018600433198010
:100B5800642000F01FFE00BF96E700BF885500081C
:100B68009C55000880B596B000AF07F114034422E5
:100B78000021184604F0CBFC3B4600221A605A605C
:100B88009A60DA601A614FF4007002F08DFC034637
:100B9800002B01D000F0DCFA02237B614FF4807354
:100BA8003B6210237B620223FB6302233B64012325
:100BB8007B640A23BB640723FB6402233B6502238F
:100BC8007B6507F11403184602F0C4FC0346002BAA
:100BD80001D000F0BDFA0F233B6003237B600023A4
:100BE800BB600023FB6000233B613B4604211846A1
:100BF80003F08CF80346002B01D000F0A9FA00BFDF
:100C08005837BD4680BD80B5A2B000AF3B468822AC
:100C18000021184604F07BFC4FF480433B604FF002
:100C28008053BB6702237B600123BB600823FB6002
:100C380007233B6102237B610223BB614FF0807372
:100C4800FB613B46184603F085FA0346002B01D0AA
:100C580000F07EFA00BF8837BD4680BD80B58AB0F7
:100C680000AF07F11C0300221A605A609A603B1D0E
:100C780000221A605A609A60DA601A615A612F4B32
:100C88002F4A1A602D4B00225A602C4B00229A6082
:100C98002A4B0022DA60294B00221A61274B0422D2
:100CA8005A61264B00221A76244B00225A76234B8F
:100CB8000122DA61214B002283F820201F4B0022F9
:100CC8009A621E4B0022DA621C4B002283F8302005
:100CD8001A4B00225A63194B002283F83820174810
:100CE80000F060FF0346002B01D000F031FA00232A
:100CF800FB6107F11C031946104801F0E1FE0346A9
:100D0800002B01D000F024FA0E4B7B600623BB6059
:100D18000023FB607F233B6104237B610023BB61CD
:100D28003B1D1946054801F02DFA0346002B01D05A
:100D380000F00EFA00BF2837BD4680BD78000020BD
:100D4800000004500200300480B586B000AF3B4676
:100D580000221A605A609A60DA601A615A61294B57
:100D6800294A1A60274B00225A60264B00229A60B3
:100D7800244B0022DA60234B00221A61214B042203
:100D88005A61204B00221A761E4B00225A761D4BC0
:100D98000122DA611B4B002283F82020194B002224
:100DA8009A62184B0022DA62164B002283F8302030
:100DB800144B00225A63134B002283F83820114841
:100DC80000F0F0FE0346002B01D000F0C1F90F4BF4
:100DD8003B6006237B600023BB607F23FB6004230A
:100DE8003B6100237B613B461946064801F0CAF97E
:100DF8000346002B01D000F0ABF900BF1837BD4601
:100E080080BD00BFDC000020000104500400600821
:100E180080B500AF1B4B1C4A1A601A4B1B4A5A601C
:100E2800184B00229A60174B0122DA60154B0022FA
:100E38001A61144B00225A61124B00229A61114B1D
:100E48000022DA610F4B00221A620E4802F0ECF918
:100E58000346002B01D000F07BF90021094802F07D
:100E68007EFA0346002B01D000F072F900210548F4
:100E780002F0C0FA0346002B01D000F069F900BF68
:100E880080BD00BF4001002000540040E49CD11008
:100E980080B500AF144B154A1A60134B4FF4E1327A
:100EA8005A60114B00229A600F4B0022DA600E4BF9
:100EB80000221A610C4B0C225A610B4B00229A61DA
:100EC800094B0022DA61084B00221A62064B002205
:100ED8005A62054803F0FAFD0346002B01D000F0E2
:100EE80037F900BF80BD00BF94010020004C0040CE
:100EF80080B500AF144B154A1A60134B4FF41652C5
:100F08005A60114B00229A600F4B0022DA600E4B98
:100F180000221A610C4B0C225A610B4B00229A6179
:100F2800094B0022DA61084B00221A62064B0022A4
:100F38005A62054803F0CAFD0346002B01D000F0B1
:100F480007F900BF80BD00BF1C0200200038014027
:100F580080B500AF144B154A1A60134B4FF4E132B9
:100F68005A60114B00229A600F4B0022DA600E4B38
:100F780000221A610C4B0C225A610B4B00229A6119
:100F8800094B0022DA61084B00221A62064B002244
:100F98005A62054803F09AFD0346002B01D000F081
:100FA800D7F800BF80BD00BFA40200200044004065
:100FB80080B500AF144B154A1A60134B4FF4165204
:100FC8005A60114B00229A600F4B0022DA600E4BD8
:100FD80000221A610C4B0C225A610B4B00229A61B9
:100FE800094B0022DA61084B00221A62064B0022E4
:100FF8005A62054803F06AFD0346002B01D000F051
:10100800A7F800BF80BD00BF2C03002000480040A7
:1010180080B58AB000AF07F1140300221A605A6045
:101028009A60DA601A61474BDB6C464A43F0040366
:10103800D364444BDB6C03F004033B613B69414BD5
:10104800DB6C404A43F08003D3643E4BDB6C03F017
:101058008003FB60FB683B4BDB6C3A4A43F00103BF
:10106800D364384BDB6C03F00103BB60BB68354BC2
:10107800DB6C344A43F00203D364324BDB6C03F07D
:1010880002037B607B68002220214FF0904002F031
:101098009BF8002244F281112B4802F095F84FF496
:1010A80000537B614FF48813BB610023FB6107F198
:1010B80014031946254801F0C5FE20237B6101234E
:1010C800BB610023FB6100233B6207F1140319464F
:1010D8004FF0904001F0B6FE44F281137B6101238A
:1010E800BB610023FB6100233B6207F1140319462F
:1010F800154801F0A7FE4FF4A0737B610023BB6184
:101108000123FB6107F114031946104801F09AFE08
:101118004FF400737B610023BB610023FB6107F17F
:1011280014031946094801F08DFE002200212820E9
:1011380001F051FE282001F06AFE00BF2837BD46A5
:1011480080BD00BF001002400004004800080048AD
:1011580080B400AF72B600BF00BFFDE780B483B0B3
:1011680000AF0F4B1B6E0E4A43F0010313660C4B86
:101178001B6E03F001037B607B68094B9B6D084A7B
:1011880043F080539365064B9B6D03F080533B609F
:101198003B6800BF0C37BD465DF8047B704700BF55
:1011A8000010024080B58CB000AF786007F11C03D6
:1011B80000221A605A609A60DA601A617B681B68BC
:1011C800334A93422DD1334B1B680133314A1360A4
:1011D800304B1B68012B0BD12F4BDB6C2E4A43F491
:1011E8000053D3642C4BDB6C03F40053BB61BB6925
:1011F800294BDB6C284A43F00403D364264BDB6C91
:1012080003F004037B617B690123FB610B233B62D1
:1012180000237B6207F11C031946204801F012FEE7
:1012280031E07B681B681E4A93422CD1194B1B681E
:101238000133184A1360174B1B68012B0BD1164B4F
:10124800DB6C154A43F40053D364134BDB6C03F493
:1012580000533B613B69104BDB6C0F4A43F00403BE
:10126800D3640D4BDB6C03F00403FB60FB680223C3
:10127800FB610B233B6200237B6207F11C031946C9
:10128800064801F0DFFD00BF3037BD4680BD00BF16
:1012980000000450B8030020001002400008004875
:1012A8000001045080B5ACB000AF786007F19C0332
:1012B80000221A605A609A60DA601A6107F1140312
:1012C80088220021184604F022F97B681B68214A0D
:1012D80093423BD140237B6100237B6607F11403D3
:1012E800184602F037FF0346002B01D0FFF730FF06
:1012F800194BDB6C184A43F00203D364164BDB6CC2
:1013080003F002033B613B694FF41073C7F89C304C
:101318001223C7F8A0300023C7F8A4300323C7F866
:10132800A8300423C7F8AC3007F19C0319460B48D2
:1013380001F088FD084B9B6D074A43F40013936541
:10134800054B9B6D03F40013FB60FB6800BFB037CF
:10135800BD4680BD00540040001002400004004813
:1013680080B5B2B000AF786007F1B40300221A600C
:101378005A609A60DA601A6107F12C03882200210A
:10138800184604F0C4F87B681B68844A93423CD131
:101398000823FB6200233B6707F12C03184602F081
:1013A800D9FE0346002B01D0FFF7D2FE7C4B9B6D84
:1013B8007B4A43F400239365794B9B6D03F4002328
:1013C800BB62BB6A764BDB6C754A43F00103D3649E
:1013D800734BDB6C03F001037B627B6A0323C7F862
:1013E800B4300223C7F8B8300023C7F8BC30032351
:1013F800C7F8C0300823C7F8C43007F1B40319464A
:101408004FF0904001F01EFDC4E07B681B68654A00
:1014180093423DD10123FB6200237B6607F12C0335
:10142800184602F097FE0346002B01D0FFF790FE06
:101438005B4B1B6E5A4A43F480431366584B1B6E32
:1014480003F480433B623B6A554BDB6C544A43F0E0
:101458000103D364524BDB6C03F00103FB61FB69AE
:101468004FF4C063C7F8B4300223C7F8B83000237C
:10147800C7F8BC300323C7F8C0300723C7F8C43007
:1014880007F1B40319464FF0904001F0DBFC81E00E
:101498007B681B68444A93423CD10223FB620023C9
:1014A800BB6607F12C03184602F054FE0346002BD6
:1014B80001D0FFF74DFE3A4B9B6D394A43F4003398
:1014C8009365374B9B6D03F40033BB61BB69344BA9
:1014D800DB6C334A43F00103D364314BDB6C03F01C
:1014E80001037B617B690C23C7F8B4300223C7F87A
:1014F800B8300023C7F8BC300323C7F8C03007232F
:10150800C7F8C43007F1B40319464FF0904001F012
:1015180099FC3FE07B681B68244A93423AD1042334
:10152800FB620023FB6607F12C03184602F012FE4B
:101538000346002B01D0FFF70BFE194B9B6D184A91
:1015480043F480239365164B9B6D03F480233B6122
:101558003B69134BDB6C124A43F00403D364104B12
:10156800DB6C03F00403FB60FB683023C7F8B4307E
:101578000223C7F8B8300023C7F8BC300323C7F8E4
:10158800C0300723C7F8C43007F1B4031946084828
:1015980001F058FC00BFC837BD4680BD004C004074
:1015A800001002400038014000440040004800405C
:1015B8000008004880B400AF00BFFDE780B400AF6A
:1015C80000BFFDE780B400AF00BFFDE780B400AF07
:1015D80000BFFDE780B400AF00BFFDE780B400AFF7
:1015E80000BFBD465DF8047B704780B400AF00BF04
:1015F800BD465DF8047B704780B400AF00BFBD46B0
:101608005DF8047B704780B500AF00F0A3F800BF19
:1016180080BD80B500AF4FF4005001F0EDFD00BF74
:1016280080BD000080B400AF064BD3F88830054A6F
:1016380043F47003C2F8883000BFBD465DF8047BF0
:10164800704700BF00ED00E0DFF834D0FFF7EAFF95
:101658000C480D490D4A002302E0D458C450043305
:10166800C4188C42F9D30A4A0A4C002301E01360DB
:101678000432A242FBD303F053FFFFF7DFF9FEE782
:10168800008001200000002014000020FC55000804
:1016980014000020C0030020FEE7000080B582B0DF
:1016A80000AF0023FB710C4B1B680B4A43F480739B
:1016B8001360032001F084FB002000F00FF80346BC
:1016C800002B02D00123FB7101E0FFF747FDFB79F6
:1016D80018460837BD4680BD0020024080B584B05A
:1016E80000AF78600023FB73174B1B78002B23D0C7
:1016F800164B1A68144B1B7819464FF47A73B3FBD0
:10170800F1F3B2FBF3F3184601F08FFB0346002B0D
:101718000FD17B680F2B09D8002279684FF0FF3072
:1017280001F059FB0A4A7B68136007E00123FB7349
:1017380004E00123FB7301E00123FB73FB7B1846E4
:101748001037BD4680BD00BF1000002008000020F3
:101758000C00002080B400AF064B1B781A46064BDD
:101768001B681344044A136000BFBD465DF8047B40
:10177800704700BF10000020BC03002080B400AFF9
:10178800034B1B681846BD465DF8047B704700BFD5
:10179800BC03002080B584B000AF7860FFF7EEFF8F
:1017A800B8607B68FB60FB68B3F1FF3F05D00A4B6C
:1017B8001B781A46FB681344FB6000BFFFF7DEFF87
:1017C8000246BB68D31AFA689A42F7D800BF00BF2E
:1017D8001037BD4680BD00BF1000002080B483B024
:1017E80000AF786039607B689B6823F47C123B68A3
:1017F8001A437B689A6000BF0C37BD465DF8047BCE
:10180800704780B483B000AF786039607B689B68AC
:1018180023F0E0723B681A437B689A6000BF0C377C
:10182800BD465DF8047B704780B483B000AF786034
:101838007B689B6803F0E07318460C37BD465DF87B
:10184800047B704780B487B000AFF860B9607A60F5
:101858003B60FB6860331A46BB689B0013447B619E
:101868007B691A68084B13407A6802F0F8413A68B5
:101878000A43134343F000427B691A6000BF1C37D8
:10188800BD465DF8047B704700F0FF0380B485B067
:1018980000AF786039607B6860331A463B689B000C
:1018A8001344FB60FB681B6803F0F84318461437C1
:1018B800BD465DF8047B704780B487B000AFF86020
:1018C800B9607A60FB6860331A46BB689B001344B2
:1018D8007B617B691B6823F000427B681A437B6944
:1018E8001A6000BF1C37BD465DF8047B704780B4A2
:1018F80083B000AF78607B68DB6803F44063002B3B
:1019080001D1012300E0002318460C37BD465DF8DD
:10191800047B704780B487B000AFF860B9607A6024
:10192800FB6830331A46BB681B0A9B0003F00C03A4
:1019380013447B617B691A68BB6803F01F031F218E
:1019480001FA03F3DB431A407B689B0E03F01F0187
:10195800BB6803F01F0301FA03F31A437B691A609B
:1019680000BF1C37BD465DF8047B704780B487B064
:1019780000AFF860B9607A60FB6814331A46BB6838
:101988005B0E9B0003F0040313447B617B691A68B8
:10199800BB681B0D03F01F03072101FA03F3DB43A8
:1019A8001A40BB681B0D03F01F03796801FA03F3A3
:1019B8001A437B691A6000BF1C37BD465DF8047B7B
:1019C8007047000080B485B000AFF860B9607A60F5
:1019D800FB68D3F8B020BB68C3F31203DB431A409B
:1019E8007B6803F018030849D940BB680B40C3F370
:1019F80012031A43FB68C3F8B02000BF1437BD4672
:101A08005DF8047B704700BFFFFF070080B483B018
:101A180000AF78607B689B6803F01F0318460C379B
:101A2800BD465DF8047B704780B483B000AF786032
:101A38007B689B6803F4604318460C37BD465DF825
:101A4800047B704780B483B000AF78607B689B6884
:101A580023F0204323F03F037A68936000BF0C37DC
:101A6800BD465DF8047B704780B483B000AF7860F2
:101A78007B689B6803F00053B3F1005F01D1012339
:101A880000E0002318460C37BD465DF8047B70471C
:101A980080B483B000AF78607B689B6823F0104304
:101AA80023F03F0343F080527B689A6000BF0C37F5
:101AB800BD465DF8047B704780B483B000AF7860A2
:101AC8007B689B6803F08053B3F1805F01D10123E9
:101AD80000E0002318460C37BD465DF8047B7047CC
:101AE80080B483B000AF78607B689B6823F00043C4
:101AF80023F03F0343F001027B689A6000BF0C3774
:101B0800BD465DF8047B704780B483B000AF786051
:101B18007B689B6803F00103012B01D1012300E0DE
:101B2800002318460C37BD465DF8047B704780B427
:101B380083B000AF78607B689B6823F0004323F094
:101B48003F0343F004027B689A6000BF0C37BD4630
:101B58005DF8047B704780B483B000AF78607B6821
:101B68009B6803F00403042B01D1012300E0002348
:101B780018460C37BD465DF8047B704780B483B0C7
:101B880000AF78607B689B6803F00803082B01D1DD
:101B9800012300E0002318460C37BD465DF8047B9E
:101BA8007047000090B589B000AF78600023FB77DC
:101BB8000023FB607B68002B01D1012330E17B68A7
:101BC8001B69002B7B685B6D002B09D17868FFF7D8
:101BD800E9FA7B6800229A657B68002283F8502026
:101BE8007B681B681846FFF73FFF0346002B04D0AD
:101BF8007B681B681846FFF725FF7B681B6818463B
:101C0800FFF75AFF0346002B15D17B681B6818465F
:101C1800FFF73EFF844B1B689B09844AA2FB032302
:101C28009B0901335B00FB6002E0FB68013BFB6042
:101C3800FB68002BF9D17B681B681846FFF73CFF4F
:101C48000346002B0DD17B685B6D43F010027B6867
:101C58005A657B689B6D43F001027B689A65012396
:101C6800FB777B681B681846FFF775FF78617B6810
:101C78005B6D03F01003002B40F0C9807B69002BDB
:101C880040F0C5807B685B6D23F4817343F00202EA
:101C98007B685A657B681B681846FFF735FF034663
:101CA800002B15D16248FFF72FFF04466148FFF764
:101CB8002BFF03461C436048FFF726FF03462343D8
:101CC800002B05D17B685B6819465C48FFF786FDE9
:101CD8007B685B7E5A037B685B6B1A437B68DB68B7
:101CE8001A437B689B681A437B6893F820301B046F
:101CF8001343BB617B6893F82030012B06D17B68C6
:101D08005B6A013B5B04BA691343BB617B689B6AEE
:101D1800002B09D07B689B6A03F470727B68DB6ACE
:101D28001343BA691343BB617B681B68DA68444B89
:101D380013407A681268B9690B43D3607B681B68E3
:101D48001846FFF71BFF38617B69002B3DD13B69C3
:101D5800002B3AD17B681B7E9A037B6893F830305E
:101D68005B001343BB617B681B68DB6823F480431B
:101D780023F002037A681268B9690B43D3607B6861
:101D880093F83830012B18D17B681B681B6923F442
:101D9800FF6323F004037A68D16B7A68126C1143ED
:101DA8007A68526C11437A68926C0A431A437B68CA
:101DB8001B6842F001021A6107E07B681B681A6918
:101DC8007B681B6822F001021A617B681B69012B82
:101DD8000CD17B681B681B6B23F00F017B68DB69E8
:101DE8005A1E7B681B680A431A6307E07B681B68F6
:101DF8001A6B7B681B6822F00F021A637B685B6DA5
:101E080023F0030343F001027B685A6507E07B680F
:101E18005B6D43F010027B685A650123FB77FB7FFB
:101E280018462437BD4690BD08000020632D3E05A6
:101E38000000045000010450000204500003045044
:101E480007C0F0FF80B586B000AF78605748FFF74D
:101E5800DDFD38617B681B681846FFF77CFE03468A
:101E6800002B40F09C807B6893F85030012B01D107
:101E7800022397E07B68012283F85020786800F0FD
:101E880073FD0346FB75FB7D002B40F083807B6868
:101E98005B6D23F4706323F0010343F480727B6865
:101EA8005A657B681B68424A934202D07B681B686C
:101EB80000E0404B7A681268934202D03B69002BDD
:101EC80005D17B685B6D23F480127B685A657B685B
:101ED8005B6D03F48053B3F5805F06D17B689B6D1F
:101EE80023F006027B689A6502E07B6800229A6507
:101EF8007B681B681C221A607B68002283F85020CC
:101F08007B681B682A4A934202D07B681B6800E002
:101F1800284B7A681268934208D03B69002B05D099
:101F28003B69052B02D03B69092B14D17B681B68E0
:101F3800DB6803F00073002B07D07B685B6D23F42C
:101F4800405343F480527B685A657B681B68184687
:101F5800FFF7EDFD25E07B685B6D43F480127B683D
:101F68005A657B681B68124A934202D07B681B68DB
:101F780000E0104BFB60FB68DB6803F00073002B8C
:101F88000FD07B685B6D23F4405343F480527B6829
:101F98005A6506E07B68002283F8502001E002239E
:101FA800FB75FB7D18461837BD4680BD00030450FD
:101FB800000104500000045080B588B000AF78607C
:101FC80039606648FFF722FD78617B685B69082BFA
:101FD80002D10823FB612AE07B69002B05D07B69CD
:101FE800052B02D07B69092B11D17B681B68DB6844
:101FF80003F00103002B07D07B685B6D43F02002E0
:102008007B685A650123A4E00423FB610FE0534871
:10201800FFF70AFD0346002B07D07B685B6D43F092
:1020280020027B685A65012393E00423FB61FFF7D4
:10203800A5FB386121E03B68B3F1FF3F1DD0FFF7F6
:102048009DFB02463B69D31A3A689A4202D33B6821
:10205800002B12D17B681B681A68FB691340002BA0
:102068000BD17B685B6D43F004027B685A657B6823
:10207800002283F8502003236BE07B681B681A68F2
:10208800FB691340002BD6D07B685B6D43F400726C
:102098007B685A657B681B681846FFF728FC03466F
:1020A800002B1CD07B685B7E002B18D17B681B68DB
:1020B8001B6803F00803082B11D17B685B6D23F4C0
:1020C80080727B685A657B685B6D03F48053002BD4
:1020D80005D17B685B6D43F001027B685A657B68BC
:1020E8001B681F4A934202D07B681B6800E01D4BA7
:1020F8007A681268934208D07B69002B05D07B6907
:10210800052B02D07B69092B04D17B681B68DB682F
:10211800BB610CE07B681B68114A934202D07B6864
:102128001B6800E00F4BFB60FB68DB68BB61FB6969
:10213800082B04D17B681B6808221A6008E0BB6979
:1021480003F48043002B03D17B681B680C221A60C0
:10215800002318462037BD4680BD00BF0003045049
:10216800000104500000045080B483B000AF7860D0
:102178007B681B681B6C18460C37BD465DF8047BF2
:102188007047000080B5B6B000AF786039600023B2
:1021980087F8D7300023BB607B6893F85030012B59
:1021A80001D10223C9E37B68012283F850207B68B0
:1021B8001B681846FFF7CFFC0346002B40F0AA83A4
:1021C8003B685B68C7F8D0303B685B68052B24D850
:1021D8003B685B68023B032B1BD801A252F823F033
:1021E800F92100080122000809220008112200082C
:1021F8000C23C7F8D03010E01223C7F8D0300CE019
:102208001823C7F8D03008E04FF48073C7F8D030EF
:1022180003E00623C7F8D03000BF7B6818683B6826
:102228001B681A46D7F8D010FFF774FB7B681B6849
:102238001846FFF790FCC7F8CC007B681B68184667
:10224800FFF79CFCC7F8C800D7F8CC30002B40F04B
:10225800A481D7F8C830002B40F09F817B681868AC
:102268003B6819683B689B681A46FFF77FFB3B6829
:102278005A697B681B68DB68DB0803F003035B00B3
:1022880002FA03F3C7F8C4303B681B69042B0AD071
:102298007B6818683B6819693B681A68D7F8C430C6
:1022A800FFF7D0FA79E17B681B6800211846FFF731
:1022B800EDFA0346C3F31203002B0AD17B681B68AF
:1022C80000211846FFF7E2FA03469B0E03F01F02AF
:1022D8001EE07B681B6800211846FFF7D7FA034603
:1022E800C7F8B830D7F8B83093FAA3F3C7F8BC30BA
:1022F800D7F8BC30C7F8B430D7F8B430002B01D1C8
:10230800202304E0D7F8B430B3FA83F3DBB21A46DB
:102318003B681B68C3F31203002B05D13B681B689D
:102328009B0E03F01F0318E03B681B68C7F8AC302E
:10233800D7F8AC3093FAA3F3C7F8A830D7F8A83089
:10234800C7F8B030D7F8B030002B01D1202304E013
:10235800D7F8B030B3FA83F3DBB29A4206D17B6880
:102368001B68002200211846FFF7A6FA7B681B6845
:1023780001211846FFF78AFA0346C3F31203002B1C
:102388000AD17B681B6801211846FFF77FFA0346CC
:102398009B0E03F01F021EE07B681B680121184694
:1023A800FFF774FA0346C7F8A030D7F8A03093FABD
:1023B800A3F3C7F89C30D7F89C30C7F8A430D7F8F7
:1023C800A430002B01D1202304E0D7F8A430B3FABD
:1023D80083F3DBB21A463B681B68C3F31203002B76
:1023E80005D13B681B689B0E03F01F0318E03B6890
:1023F8001B68C7F89430D7F8943093FAA3F3C7F85A
:102408009030D7F89030C7F89830D7F89830002B2C
:1024180001D1202304E0D7F89830B3FA83F3DBB274
:102428009A4206D17B681B68002201211846FFF7F3
:1024380043FA7B681B6802211846FFF727FA034610
:10244800C3F31203002B0AD17B681B6802211846CC
:10245800FFF71CFA03469B0E03F01F021EE07B6881
:102468001B6802211846FFF711FA0346C7F888309F
:10247800D7F8883093FAA3F3C7F88430D7F88430B4
:10248800C7F88C30D7F88C30002B01D1202304E01A
:10249800D7F88C30B3FA83F3DBB21A463B681B6873
:1024A800C3F31203002B05D13B681B689B0E03F096
:1024B8001F0314E03B681B68FB67FB6F93FAA3F3E9
:1024C800BB67BB6FC7F88030D7F88030002B01D1CD
:1024D800202304E0D7F88030B3FA83F3DBB29A42C2
:1024E80006D17B681B68002202211846FFF7E4F931
:1024F8007B681B6803211846FFF7C8F90346C3F336
:102508001203002B0AD17B681B6803211846FFF7CA
:10251800BDF903469B0E03F01F0217E07B681B689A
:1025280003211846FFF7B2F903463B673B6F93FA5E
:10253800A3F3FB66FB6E7B677B6F002B01D1202327
:1025480003E07B6FB3FA83F3DBB21A463B681B6880
:10255800C3F31203002B05D13B681B689B0E03F0E5
:102568001F0311E03B681B687B667B6E93FAA3F33D
:102578003B663B6EBB66BB6E002B01D1202303E09C
:10258800BB6EB3FA83F3DBB29A4206D17B681B6851
:10259800002203211846FFF78FF97B681B6818464D
:1025A800FFF7B2FA0346002B40F040817B681868B9
:1025B8003B6819683B68DB681A46FFF703FA3B6813
:1025C800DB688F4A934240F031817B6818683B682A
:1025D8001B68C3F31203002B0BD13B681B689B0ECF
:1025E800013303F01F03092B94BF01230023DBB23F
:1025F80019E03B681B68BB65BB6D93FAA3F37B6569
:102608007B6DFB65FB6D002B01D1202303E0FB6D87
:10261800B3FA83F3DBB2013303F01F03092B94BF32
:1026280001230023DBB2002B79D03B681B68C3F37E
:102638001203002B07D13B681B689B0E01339B06D6
:1026480003F0F84215E03B681B68FB64FB6C93FAE7
:10265800A3F3BB64BB6C3B653B6D002B01D120230E
:1026680003E03B6DB3FA83F3DBB201339B0603F05F
:10267800F8423B681B68C3F31203002B09D13B687F
:102688001B689B0E013303F01F03012101FA03F3BA
:1026980017E03B681B683B643B6C93FAA3F3FB634E
:1026A800FB6B7B647B6C002B01D1202303E07B6CEC
:1026B800B3FA83F3DBB2013303F01F03012101FAFC
:1026C80003F342EA03013B681B68C3F31203002BC0
:1026D8000AD13B681B689B0E013303F01F021346A7
:1026E8005B0013441B0518E03B681B687B637B6B2E
:1026F80093FAA3F33B633B6BBB63BB6B002B01D12A
:10270800202303E0BB6BB3FA83F3DBB2013303F09E
:102718001F0213465B0013441B050B4381E03B6813
:102728001B68C3F31203002B07D13B681B689B0E81
:1027380001339B0603F0F84215E03B681B68BB6257
:10274800BB6A93FAA3F37B627B6AFB62FB6A002B8A
:1027580001D1202303E0FB6AB3FA83F3DBB2013330
:102768009B0603F0F8423B681B68C3F31203002B77
:1027780009D13B681B689B0E013303F01F0301213D
:1027880001FA03F317E03B681B68FB61FB6993FAE6
:10279800A3F3BB61BB693B623B6A002B01D12023D9
:1027A80003E03B6AB3FA83F3DBB2013303F01F03A0
:1027B800012101FA03F342EA03013B681B68C3F3F2
:1027C8001203002B0DD13B681B689B0E013303F0ED
:1027D8001F0213465B0013441E3B1B0543F00073A6
:1027E8001EE03B681B683B613B6993FAA3F3FB60FF
:1027F800FB687B617B69002B04D1202306E000BFC6
:1028080000007F407B69B3FA83F3DBB2013303F046
:102818001F0213465B0013441E3B1B0543F0007365
:102828000B433A6892681946FFF7A0F83B681A68A4
:10283800444B1340002B7AD04348FEF7F5FFC7F806
:10284800C0003B681B68414A93422CD1D7F8C0307E
:1028580003F40003002B26D17B681B683C4A934293
:1028680004D07B681B683B4A93425DD1D7F8C030DF
:1028780043F4000319463448FEF7C3FF364B1B6880
:102888009B09364AA2FB03239B095A1C13465B008B
:1028980013449B00BB6002E0BB68013BBB60BB68A4
:1028A800002BF9D140E03B681B682D4A934218D1B0
:1028B800D7F8C03003F08073002B12D17B681B68F7
:1028C800234A934204D07B681B68224A93422DD145
:1028D800D7F8C03043F0807319461B48FEF791FFC4
:1028E80024E03B681B681F4A934220D1D7F8C030C8
:1028F80003F48003002B1AD17B681B68144A9342A7
:1029080015D1D7F8C03043F4800319460E48FEF7B6
:1029180078FF0CE07B685B6D43F020027B685A65AA
:10292800012387F8D73002E000BF00E000BF7B68D2
:10293800002283F8502097F8D7301846D837BD467C
:1029480080BD00BF0000088000030450000052C78B
:10295800000004500002045008000020632D3E05CA
:10296800000084CB0100008080B584B000AF78609F
:102978000023BB607B681B681846FFF7C5F8034651
:10298800002B69D17B681B689A68364B1340002B73
:102998000DD07B685B6D43F010027B685A657B68DD
:1029A8009B6D43F001027B689A65012355E07B68C3
:1029B8001B681846FFF794F82B48FEF735FF0346C7
:1029C80003F40003002B13D0284B1B689B09284AEB
:1029D800A2FB03239B095A1C13465B0013449B006C
:1029E800BB6002E0BB68013BBB60BB68002BF9D150
:1029F800FEF7C4FEF86028E07B681B681846FFF7FE
:102A080083F80346002B04D17B681B681846FFF740
:102A180067F8FEF7B3FE0246FB68D31A022B14D9F7
:102A28007B681B681B6803F00103012B0DD07B68D2
:102A38005B6D43F010027B685A657B689B6D43F0C1
:102A480001027B689A65012307E07B681B681B68A5
:102A580003F00103012BCFD1002318461037BD46E0
:102A680080BD00BF3F000080000304500800002024
:102A7800632D3E0580B483B000AF78607B689B68A7
:102A880003F00103012B01D1012300E000231846C4
:102A98000C37BD465DF8047B704780B483B000AF47
:102AA80078607B689B6803F00403042B01D1012341
:102AB80000E0002318460C37BD465DF8047B7047DC
:102AC80090B59FB000AF78603960002387F8773001
:102AD8007B6893F85030012B01D1022393E07B6887
:102AE800012283F850200023FB6500233B667B68A6
:102AF8001B68474A934202D1464BBB6001E0002362
:102B0800BB60BB68002B0BD17B685B6D43F0200278
:102B18007B685A657B68002283F85020012372E0A5
:102B2800BB681846FFF7B9FF38677B681B6818460B
:102B3800FFF7B3FF0346002B54D13B6F002B51D155
:102B4800354BFB663B681B68002B2CD0FB6E9B68E3
:102B580023F460423B6859687B6893F830305B0324
:102B68000B431A43FB6E9A602948FFF783FF04461C
:102B78002848FFF77FFF03461C432848FFF77AFFE2
:102B880003462343002B37D1FB6E9B6823F4716304
:102B980023F00F033A6811683A6892680A431A43A7
:102BA800FB6E9A6028E0FB6E9B6823F46042FB6E24
:102BB8009A601748FFF75EFF04461648FFF75AFF6A
:102BC80003461C431548FFF755FF03462343002BD4
:102BD80012D1FB6E9B6823F4716323F00F03FA6E26
:102BE800936009E07B685B6D43F020027B685A655F
:102BF800012387F8773000E000BF7B68002283F864
:102C0800502097F8773018467C37BD4690BD00BFF6
:102C18000000045000010450000304500002045056
:102C280080B485B000AF78607B6803F00703FB6071
:102C38000C4BDB68BB60BA684FF6FF031340BB6000
:102C4800FB681A02BB68134343F0BF6343F40033C5
:102C5800BB60044ABB68D36000BF1437BD465DF84B
:102C6800047B704700ED00E080B400AF044BDB68E4
:102C78001B0A03F007031846BD465DF8047B70473E
:102C880000ED00E080B483B000AF0346FB7197F914
:102C98000730002B0BDBFB7903F01F02074997F97C
:102CA80007305B09012000FA02F241F8232000BF37
:102CB8000C37BD465DF8047B704700BF00E100E0BB
:102CC80080B483B000AF03463960FB7197F90730D1
:102CD800002B0ADB3B68DAB20C4997F9073012017E
:102CE800D2B20B4483F800230AE03B68DAB2084901
:102CF800FB7903F00F03043B1201D2B20B441A769E
:102D080000BF0C37BD465DF8047B704700E100E06A
:102D180000ED00E080B489B000AFF860B9607A6077
:102D2800FB6803F00703FB61FB69C3F10703042B8E
:102D380028BF0423BB61FB690433062B02D9FB6956
:102D4800033B00E000237B614FF0FF32BB6902FACE
:102D580003F3DA43BB681A407B699A404FF0FF31AE
:102D68007B6901FA03F3D9437B680B401343184688
:102D78002437BD465DF8047B7047000080B582B0FB
:102D880000AF78607B68013BB3F1807F01D30123FA
:102D98000FE00A4A7B68013B53600F214FF0FF3078
:102DA800FFF78EFF054B00229A60044B07221A603A
:102DB800002318460837BD4680BD00BF10E000E07C
:102DC80080B582B000AF78607868FFF729FF00BF50
:102DD8000837BD4680BD80B586B000AF0346B960F0
:102DE8007A60FB7300237B61FFF73EFF78617A68A6
:102DF800B9687869FFF78EFF024697F90F301146D8
:102E08001846FFF75DFF00BF1837BD4680BD80B587
:102E180082B000AF0346FB7197F907301846FFF7F9
:102E280031FF00BF0837BD4680BD80B582B000AF16
:102E380078607868FFF7A2FF034618460837BD4652
:102E480080BD000080B487B000AF7860396000238F
:102E58007B617FE13B681A6801217B6901FA03F312
:102E68001340FB60FB68002B00F071813B685B68D6
:102E780003F00303012B05D03B685B6803F00303F1
:102E8800022B30D17B689B683B617B695B00032226
:102E980002FA03F3DB433A6913403B613B68DA68A3
:102EA8007B695B0002FA03F33A6913433B617B6871
:102EB8003A699A607B685B683B6101227B6902FA28
:102EC80003F3DB433A6913403B613B685B681B09CA
:102ED80003F001027B6902FA03F33A6913433B6189
:102EE8007B683A695A603B685B6803F00303032B0D
:102EF80018D17B68DB6A3B6101227B6902FA03F324
:102F0800DB433A6913403B613B685B68DB0803F0CD
:102F180001027B6902FA03F33A6913433B617B6858
:102F28003A69DA623B685B6803F00303032B17D046
:102F38007B68DB683B617B695B00032202FA03F371
:102F4800DB433A6913403B613B689A687B695B00E5
:102F580002FA03F33A6913433B617B683A69DA6022
:102F68003B685B6803F00303022B23D17B69DA0813
:102F78007B68083253F822303B617B6903F0070312
:102F88009B000F2202FA03F3DB433A6913403B61CB
:102F98003B681A697B6903F007039B0002FA03F395
:102FA8003A6913433B617B69DA087B6808323969FF
:102FB80043F822107B681B683B617B695B00032236
:102FC80002FA03F3DB433A6913403B613B685B68F1
:102FD80003F003027B695B0002FA03F33A691343C7
:102FE8003B617B683A691A603B685B6803F440336D
:102FF800002B00F0AC805F4B1B6E5E4A43F0010370
:1030080013665C4B1B6E03F00103BB60BB685A4A36
:103018007B699B08023352F823303B617B6903F0DC
:1030280003039B000F2202FA03F3DB433A691340C0
:103038003B617B68B3F1904F25D07B684F4A934240
:103048001FD07B684E4A934219D07B684D4A934201
:1030580013D07B684C4A93420DD07B684B4A93420D
:1030680007D07B684A4A934201D106230CE0072324
:103078000AE0052308E0042306E0032304E0022312
:1030880002E0012300E000237A6902F003029200C3
:1030980093403A6913433B6137497B699B08023384
:1030A8003A6941F823203B4B9B683B61FB68DB4353
:1030B8003A6913403B613B685B6803F48013002B5B
:1030C80003D03A69FB6813433B61324A3B6993601A
:1030D800304BDB683B61FB68DB433A6913403B617B
:1030E8003B685B6803F40013002B03D03A69FB6864
:1030F80013433B61274A3B69D360264B5B683B61BE
:10310800FB68DB433A6913403B613B685B6803F447
:103118000033002B03D03A69FB6813433B611D4A17
:103128003B6953601B4B1B683B61FB68DB433A6997
:1031380013403B613B685B6803F48033002B03D08A
:103148003A69FB6813433B61124A3B6913607B6928
:1031580001337B613B681A687B6922FA03F3002B11
:103168007FF478AE00BF00BF1C37BD465DF8047B16
:10317800704700BF001002400000014000040048F2
:1031880000080048000C00480010004800140048DF
:10319800001800480004014080B485B000AF786092
:1031A8000B467B807B681A697B881340002B02D012
:1031B8000123FB7301E00023FB73FB7B18461437E4
:1031C800BD465DF8047B704780B483B000AF78607B
:1031D8000B467B8013467B707B78002B03D07A8864
:1031E8007B689A6102E07A887B689A6200BF0C3734
:1031F800BD465DF8047B704780B582B000AF0346DA
:10320800FB80084B5A69FB881340002B06D0054AFF
:10321800FB885361FB881846FDF7F0FB00BF0837B1
:10322800BD4680BD0004014080B582B000AF786023
:103238007B68002B01D101238DE07B6893F8413036
:10324800DBB2002B06D17B68002283F84020786827
:10325800FEF728F87B68242283F841207B681B68E6
:103268001A687B681B6822F001021A607B685A683A
:103278007B681B6822F070621A617B681B689A6819
:103288007B681B6822F400429A607B68DB68012B2C
:1032980007D17B689A687B681B6842F400429A6091
:1032A80006E07B689A687B681B6842F404429A606F
:1032B8007B68DB68022B08D17B681B685A687B68CF
:1032C8001B6842F400625A6007E07B681B685A6812
:1032D8007B681B6822F400625A607B681B685B6825
:1032E8007A68126843F0007343F4004353607B68C4
:1032F8001B68DA687B681B6822F40042DA607B6826
:103308001A697B685B6942EA03017B689B691A0258
:103318007B681B680A43DA607B68D9697B681A6A2C
:103328007B681B680A431A607B681B681A687B689D
:103338001B6842F001021A607B6800225A647B68AD
:10334800202283F841207B6800221A637B680022D0
:1033580083F84220002318460837BD4680BD80B454
:1033680083B000AF786039607B6893F84130DBB296
:10337800202B38D17B6893F84030012B01D10223F0
:1033880032E07B68012283F840207B68242283F89E
:1033980041207B681B681A687B681B6822F0010261
:1033A8001A607B681B681A687B681B6822F4805265
:1033B8001A607B681B6819687B681B683A680A434F
:1033C8001A607B681B681A687B681B6842F00102F8
:1033D8001A607B68202283F841207B68002283F8EA
:1033E8004020002300E0022318460C37BD465DF854
:1033F800047B704780B485B000AF786039607B6823
:1034080093F84130DBB2202B39D17B6893F84030F8
:10341800012B01D1022333E07B68012283F840208D
:103428007B68242283F841207B681B681A687B68C4
:103438001B6822F001021A607B681B681B68FB602E
:10344800FB6823F47063FB603B681B02FA68134354
:10345800FB607B681B68FA681A607B681B681A68DF
:103468007B681B6842F001021A607B68202283F89F
:1034780041207B68002283F84020002300E00223DB
:1034880018461437BD465DF8047B704780B400AF1A
:10349800044B1B6803F4C0631846BD465DF8047B03
:1034A800704700BF0070004080B485B000AF7860FE
:1034B8007B68B3F5007F30D1234B1B6803F4C063EE
:1034C800B3F5007F38D0204B1B6823F4C0631E4A35
:1034D80043F4007313601D4B1B68322202FB03F395
:1034E8001B4AA2FB03239B0C0133FB6002E0FB6831
:1034F800013BFB60144B5B6903F48063B3F5806F99
:1035080002D1FB68002BF2D10F4B5B6903F4806397
:10351800B3F5806F10D103230FE00B4B1B6803F446
:10352800C063B3F5806F07D0074B1B6823F4C063F3
:10353800054A43F480631360002318461437BD46D8
:103548005DF8047B704700BF007000400800002051
:1035580083DE1B4380B588B000AF78607B68002BA2
:1035680001D10123CAE3974B9B6803F00C03BB61AD
:10357800944BDB6803F003037B617B681B6803F0F3
:103588001003002B00F0E480BB69002B07D0BB6957
:103598000C2B40F08B807B69012B40F08780894B96
:1035A8001B6803F00203002B05D07B689B69002B86
:1035B80001D10123A2E37B681A6A824B1B6803F0DE
:1035C8000803002B04D07F4B1B6803F0F00305E0D1
:1035D8007C4BD3F894301B0903F0F003934223D2B9
:1035E8007B681B6A184600F055FD0346002B01D086
:1035F800012383E3734B1B68724A43F0080313608B
:10360800704B1B6823F0F0027B681B6A6D491343FB
:103618000B606C4B5B6823F47F427B68DB691B02A1
:10362800684913434B6025E0664B1B68654A43F0C5
:1036380008031360634B1B6823F0F0027B681B6A66
:10364800604913430B605F4B5B6823F47F427B68E0
:10365800DB691B025B4913434B60BB69002B09D133
:103668007B681B6A184600F015FD0346002B01D045
:10367800012343E300F04AFC0246524B9B681B09B6
:1036880003F00F035049CB5C03F01F0322FA03F346
:103698004E4A13604E4B1B681846FEF71FF8034648
:1036A800FB73FB7B002B52D0FB7B27E37B689B697A
:1036B800002B32D0434B1B68424A43F0010313608E
:1036C800FEF75CF8386108E0FEF758F802463B69F7
:1036D800D31A022B01D9032310E33A4B1B6803F0DA
:1036E8000203002BF0D0374B1B68364A43F008031F
:1036F8001360344B1B6823F0F0027B681B6A314966
:1037080013430B602F4B5B6823F47F427B68DB69B4
:103718001B022C4913434B601AE02A4B1B68294AA9
:1037280023F001031360FEF729F8386108E0FEF77B
:1037380025F802463B69D31A022B01D90323DDE29F
:10374800204B1B6803F00203002BF0D100E000BF00
:103758007B681B6803F00103002B74D0BB69082B3E
:1037680005D0BB690C2B0ED17B69032B0BD1154BF4
:103778001B6803F40033002B64D07B685B68002B64
:1037880060D10123BAE27B685B68B3F5803F06D15C
:103798000C4B1B680B4A43F48033136026E07B68AC
:1037A8005B68B3F5A02F15D1064B1B68054A43F497
:1037B80080231360034B1B68024A43F48033136071
:1037C80014E000BF00100240A455000808000020C3
:1037D8000C000020A04B1B689F4A23F48033136021
:1037E8009D4B1B689C4A23F4802313607B685B68AD
:1037F800002B13D0FDF7C2FF386108E0FDF7BEFFCC
:1038080002463B69D31A642B01D9032376E2924B13
:103818001B6803F40033002BF0D014E0FDF7AEFF73
:10382800386108E0FDF7AAFF02463B69D31A642B0A
:1038380001D9032362E2884B1B6803F40033002B91
:10384800F0D100E000BF7B681B6803F00203002B87
:1038580060D0BB69042B05D0BB690C2B19D17B69DF
:10386800022B16D17C4B1B6803F48063002B05D018
:103878007B68DB68002B01D101233FE2764B5B6854
:1038880023F0F8527B681B691B06734913434B608E
:1038980040E07B68DB68002B23D06F4B1B686E4AC7
:1038A80043F480731360FDF769FF386108E0FDF7A2
:1038B80065FF02463B69D31A022B01D903231DE297
:1038C800654B1B6803F48063002BF0D0624B5B6888
:1038D80023F0F8527B681B691B065F4913434B6052
:1038E80018E05D4B1B685C4A23F480731360FDF796
:1038F80045FF386108E0FDF741FF02463B69D31AEE
:10390800022B01D90323F9E1534B1B6803F48063AD
:10391800002BF0D17B681B6803F00803002B3CD018
:103928007B685B69002B1CD04B4BD3F894304A4A18
:1039380043F00103C2F89430FDF720FF386108E036
:10394800FDF71CFF02463B69D31A022B01D903235A
:10395800D4E1414BD3F8943003F00203002BEFD0AD
:103968001BE03D4BD3F894303B4A23F00103C2F8E7
:103978009430FDF703FF386108E0FDF7FFFE0246CB
:103988003B69D31A022B01D90323B7E1324BD3F891
:10399800943003F00203002BEFD17B681B6803F01F
:1039A8000403002B00F0A6800023FB772A4B9B6DB5
:1039B80003F08053002B0DD1274B9B6D264A43F013
:1039C80080539365244B9B6D03F08053BB60BB68A9
:1039D8000123FB77214B1B6803F48073002B18D15C
:1039E8001E4B1B681D4A43F480731360FDF7C6FE27
:1039F800386108E0FDF7C2FE02463B69D31A022B84
:103A080001D903237AE1154B1B6803F48073002B5B
:103A1800F0D07B689B68012B08D10F4BD3F890300E
:103A28000D4A43F00103C2F8903029E07B689B6897
:103A3800052B15D1084BD3F89030074A43F00403FF
:103A4800C2F89030044BD3F89030034A43F0010396
:103A5800C2F8903014E000BF00100240007000402F
:103A68009C4BD3F890309B4A23F00103C2F8903066
:103A7800984BD3F89030974A23F00403C2F890305B
:103A88007B689B68002B16D0FDF778FE38610AE04A
:103A9800FDF774FE02463B69D31A41F2883293421D
:103AA80001D903232AE18B4BD3F8903003F00203AA
:103AB800002BEDD015E0FDF761FE38610AE0FDF757
:103AC8005DFE02463B69D31A41F28832934201D91E
:103AD800032313E17F4BD3F8903003F00203002B4C
:103AE800EDD1FB7F012B05D17A4B9B6D794A23F0F1
:103AF800805393657B689B6A002B00F0FE807B688F
:103B08009B6A022B40F0D080724BDB687B617B693B
:103B180003F003027B68DB6A9A4230D17B6903F0C9
:103B280070027B681B6B013B1B019A4227D17B69A2
:103B380003F4FE427B685B6B1B029A421FD17B69D0
:103B480003F400337A68926B072A14BF012200221B
:103B5800D2B2934213D17B6903F4C0027B68DB6B5A
:103B68005B08013B5B059A4209D17B6903F0C0629F
:103B78007B681B6C5B08013B5B069A426ED0BB6995
:103B88000C2B69D0534B1B6803F08063002B05D1C5
:103B9800504B1B6803F08053002B01D00123ADE08C
:103BA8004C4B1B684B4A23F080731360FDF7E6FD0E
:103BB800386108E0FDF7E2FD02463B69D31A022BA3
:103BC80001D903239AE0434B1B6803F00073002BD1
:103BD800F0D1404BDA68404B13407A68D16A7A6872
:103BE800126B013A120111437A68526B12021143A7
:103BF8007A68D26B5208013A520511437A68126CFE
:103C08005208013A520611437A68926B120952041B
:103C18000A4330491343CB602E4B1B682D4A43F0AF
:103C2800807313602B4BDB682A4A43F08073D360A0
:103C3800FDF7A4FD386108E0FDF7A0FD02463B69E9
:103C4800D31A022B01D9032358E0224B1B6803F037
:103C58000073002BF0D050E001234FE01D4B1B6890
:103C680003F00073002B48D11A4B1B68194A43F024
:103C780080731360174BDB68164A43F08073D36078
:103C8800FDF77CFD386108E0FDF778FD02463B69E9
:103C9800D31A022B01D9032330E00E4B1B6803F023
:103CA8000073002BF0D028E0BB690C2B23D0094B04
:103CB8001B68084A23F080731360FDF75FFD3861C5
:103CC8000CE0FDF75BFD02463B69D31A022B05D9D0
:103CD800032313E0001002408C809DF9094B1B68F8
:103CE80003F00073002BECD1064BDA680549064B4C
:103CF8001340CB6001E0012300E000231846203781
:103D0800BD4680BD00100240FCFFEEFE80B584B0C9
:103D180000AF786039607B68002B01D10123E7E0B0
:103D2800754B1B6803F007033A689A4210D9724B27
:103D38001B6823F0070270493B6813430B606E4B06
:103D48001B6803F007033A689A4201D00123CFE0C9
:103D58007B681B6803F00203002B10D07B689A680D
:103D6800664B9B6803F0F0039A4208D9634B9B6843
:103D780023F0F0027B689B68604913438B607B6883
:103D88001B6803F00103002B4CD07B685B68032B96
:103D980007D15A4B1B6803F00073002B21D1012374
:103DA800A6E07B685B68022B07D1544B1B6803F4C1
:103DB8000033002B15D101239AE07B685B68002B48
:103DC80007D14E4B1B6803F00203002B09D10123D6
:103DD8008EE04A4B1B6803F48063002B01D101235A
:103DE80086E0464B9B6823F003027B685B68434987
:103DF80013438B60FDF7C2FCF8600AE0FDF7BEFCD8
:103E08000246FB68D31A41F28832934201D9032350
:103E18006EE03A4B9B6803F00C027B685B689B0082
:103E28009A42EBD17B681B6803F00203002B10D089
:103E38007B689A68314B9B6803F0F0039A4208D27A
:103E48002E4B9B6823F0F0027B689B682B49134339
:103E58008B60294B1B6803F007033A689A4210D21B
:103E6800254B1B6823F0070223493B6813430B606B
:103E7800214B1B6803F007033A689A4201D00123DB
:103E880036E07B681B6803F00403002B08D01B4B4B
:103E98009B6823F4E0627B68DB68184913438B60F6
:103EA8007B681B6803F00803002B09D0134B9B6841
:103EB80023F460527B681B69DB00104913438B6055
:103EC80000F024F802460D4B9B681B0903F00F0312
:103ED8000B49CB5C03F01F0322FA03F3094A136072
:103EE800094B1B681846FDF7F9FB0346FB72FB7A82
:103EF80018461037BD4680BD002002400010024021
:103F0800A4550008080000200C00002080B489B0E7
:103F180000AF0023FB610023BB613E4B9B6803F0AD
:103F28000C033B613B4BDB6803F00303FB603B691D
:103F3800002B05D03B690C2B21D1FB68012B1ED12E
:103F4800344B1B6803F00803002B07D1314BD3F81F
:103F580094301B0A03F00F03FB6105E02D4B1B682F
:103F68001B0903F00F03FB612B4AFB6952F823304E
:103F7800FB613B69002B0DD1FB69BB610AE03B6922
:103F8800042B02D1254BBB6104E03B69082B01D10E
:103F9800234BBB613B690C2B34D11E4BDB6803F010
:103FA8000303BB60BB68022B03D0BB68032B03D0A1
:103FB80005E01A4B7B6105E0194B7B6102E0FB6968
:103FC8007B6100BF134BDB681B0903F00703013358
:103FD8007B60104BDB681B0A03F07F037A6903FBE5
:103FE80002F27B68B2FBF3F37B610A4BDB685B0E82
:103FF80003F0030301335B003B607A693B68B2FB63
:10400800F3F3BB61BB6918462437BD465DF8047BF2
:10401800704700BF00100240BC5500080024F4009F
:1040280000127A0080B400AF034B1B681846BD46E7
:104038005DF8047B704700BF0800002080B500AF22
:10404800FFF7F0FF0246064B9B681B0A03F00703C5
:104058000449CB5C03F01F0322FA03F3184680BD22
:1040680000100240B455000880B500AFFFF7DAFF32
:104078000246064B9B68DB0A03F007030449CB5C46
:1040880003F01F0322FA03F3184680BD0010024014
:10409800B455000880B586B000AF786000233B6156
:1040A8002A4B9B6D03F08053002B03D0FFF7EEF9EA
:1040B800786114E0254B9B6D244A43F08053936547
:1040C800224B9B6D03F08053FB60FB68FFF7DEF922
:1040D80078611E4B9B6D1D4A23F0805393657B6965
:1040E800B3F5007F0BD17B68802B19D97B68A02B97
:1040F80002D902233B6113E001233B6110E07B6896
:10410800802B02D903233B610AE07B68802B02D114
:1041180002233B6104E07B68702B01D101233B61E2
:104128000B4B1B6823F0070209493B6913430B60DB
:10413800074B1B6803F007033A699A4201D0012331
:1041480000E0002318461837BD4680BD0010024025
:104158000020024080B586B000AF78600023FB7471
:104168000023BB747B681B6803F40063002B41D0F9
:104178007B685B6EB3F5400F2AD0B3F5400F24D8A7
:10418800B3F5000F08D0B3F5000F1ED8002B0AD0E6
:10419800B3F5800F10D018E0864BDB68854A43F4EE
:1041A8008033D36015E07B6804330021184600F0A3
:1041B800BBFA0346FB740CE07B68203300211846E9
:1041C80000F0A6FB0346FB7403E00123FB7400E048
:1041D80000BFFB7C002B0BD1764BD3F8883023F43F
:1041E80040027B685B6E73491343C1F8883001E075
:1041F800FB7CBB747B681B6803F48053002B41D0A5
:104208007B689B6EB3F1407F2AD0B3F1407F24D8FE
:10421800B3F1007F08D0B3F1007F1ED8002B0AD07D
:10422800B3F1807F10D018E0624BDB68614A43F439
:104238008033D36015E07B6804330021184600F012
:1042480073FA0346FB740CE07B68203300211846A0
:1042580000F05EFB0346FB7403E00123FB7400E0FF
:1042680000BFFB7C002B0BD1524BD3F8883023F0D6
:1042780040727B689B6E4F491343C1F8883001E058
:10428800FB7CBB747B681B6803F40033002B00F0D5
:10429800A08000237B74474B9B6D03F08053002B59
:1042A80001D1012300E00023002B0DD0414B9B6D71
:1042B800404A43F0805393653E4B9B6D03F0805317
:1042C800BB60BB6801237B743B4B1B683A4A43F4D1
:1042D80080731360FDF752FAF86009E0FDF74EFAB3
:1042E8000246FB68D31A022B02D90323FB7405E0AC
:1042F800314B1B6803F48073002BEFD0FB7C002B41
:104308005CD12C4BD3F8903003F440737B617B690C
:10431800002B1FD07B68D3F884307A699A4219D071
:10432800244BD3F8903023F440737B61214BD3F8AE
:104338009030204A43F48033C2F890301D4BD3F8B4
:1043480090301C4A23F48033C2F89030194A7B69B4
:10435800C2F890307B6903F00103002B16D0FDF7FB
:104368000DFAF8600BE0FDF709FA0246FB68D31A6C
:1043780041F28832934202D90323FB7406E00D4BC5
:10438800D3F8903003F00203002BECD0FB7C002B19
:104398000CD1084BD3F8903023F440727B68D3F8E3
:1043A800843004491343C1F8903009E0FB7CBB74A6
:1043B80006E000BF0010024000700040FB7CBB74A8
:1043C8007B7C012B05D19E4B9B6D9D4A23F080532E
:1043D80093657B681B6803F00103002B0AD0984B98
:1043E800D3F8883023F003027B689B6B944913430E
:1043F800C1F888307B681B6803F00203002B0AD0E1
:104408008F4BD3F8883023F00C027B68DB6B8C4928
:104418001343C1F888307B681B6803F00403002B42
:104428000AD0874BD3F8883023F030027B681B6CA6
:1044380083491343C1F888307B681B6803F008037D
:10444800002B0AD07E4BD3F8883023F0C0027B685B
:104458005B6C7B491343C1F888307B681B6803F0A9
:104468001003002B0AD0764BD3F8883023F440721F
:104478007B689B6C72491343C1F888307B681B6862
:1044880003F02003002B0AD06D4BD3F8883023F4B7
:1044980040627B68DB6C6A491343C1F888307B68EB
:1044A8001B6803F40073002B0AD0654BD3F88830DF
:1044B80023F440227B68DB6D61491343C1F88830DF
:1044C8007B681B6803F48063002B0AD05C4BD3F82D
:1044D800883023F440127B681B6E59491343C1F896
:1044E80088307B681B6803F04003002B0AD0544BCC
:1044F800D3F8883023F440527B681B6D504913432E
:10450800C1F888307B681B6803F08003002B0AD051
:104518004B4BD3F8883023F440427B685B6D4849A5
:104528001343C1F888307B681B6803F48073002B41
:104538000AD0434BD3F8883023F440327B689B6D14
:104548003F491343C1F888307B681B6803F4005364
:10455800002B28D03A4BD3F8883023F040627B6890
:10456800DB6E37491343C1F888307B68DB6EB3F1E3
:10457800006F06D1324BDB68314A43F48013D360B5
:1045880011E07B68DB6EB3F1806F0CD17B6804337C
:104598000121184600F0C8F80346FB74FB7C002B89
:1045A80001D0FB7CBB747B681B6803F40023002BE1
:1045B80028D0234BD3F8883023F040627B681B6FE8
:1045C8001F491343C1F888307B681B6FB3F1006F34
:1045D80006D11B4BDB681A4A43F48013D36011E001
:1045E8007B681B6FB3F1806F0CD17B6804330121AA
:1045F800184600F099F80346FB74FB7C002B01D0A9
:10460800FB7CBB747B681B6803F48023002B2BD0D6
:104618000B4BD3F8883023F040627B685B6F084906
:104628001343C1F888307B685B6FB3F1006F09D121
:10463800034BDB68024A43F48013D36014E000BFE5
:10464800001002407B685B6FB3F1806F0CD17B6810
:1046580004330121184600F067F80346FB74FB7C1D
:10466800002B01D0FB7CBB747B681B6803F4804380
:10467800002B2FD02B4BD3F8883023F040527B6887
:104688009B6F28491343C1F888307B689B6FB3F14F
:10469800805F0DD17B6804330221184600F044F88E
:1046A8000346FB74FB7C002B14D0FB7CBB7411E02D
:1046B8007B689B6FB3F1005F0CD17B6820330221CC
:1046C800184600F025F90346FB74FB7C002B01D04B
:1046D800FB7CBB747B681B6803F40043002B0AD087
:1046E800104BD3F8883023F080427B68DB6F0D498C
:1046F8001343C1F888307B681B6803F48033002BB0
:104708000BD0084BD3F8883023F000427B68D3F8ED
:10471800803004491343C1F88830BB7C18461837E9
:10472800BD4680BD0010024080B584B000AF7860FF
:1047380039600023FB73754BDB6803F00303002B20
:1047480018D0724BDB6803F003027B681B689A423F
:104758000DD17B681B68002B09D06C4BDB681B09EB
:1047680003F007035A1C7B685B689A4247D0012311
:10477800FB7344E07B681B68032B18D0032B25D8F8
:10478800012B02D0022B09D020E0604B1B6803F0FC
:104798000203002B1DD10123FB731AE05B4B1B683E
:1047A80003F48063002B16D10123FB7313E0574BEE
:1047B8001B6803F40033002B0FD1544B1B6803F420
:1047C8008023002B09D10123FB7306E00123FB732F
:1047D80004E000BF02E000BF00E000BFFB7B002B4D
:1047E8000DD14A4BDB6823F073027B6819687B683C
:1047F8005B68013B1B010B4344491343CB60FB7BC4
:10480800002B7DD1414B1B68404A23F08063136025
:10481800FCF7B4FFB86009E0FCF7B0FF0246BB68DC
:10482800D31A022B02D90323FB7305E0374B1B680D
:1048380003F00063002BEFD1FB7B002B60D13B68BA
:10484800002B11D1314B1B6923F41F3323F4407320
:104858007A68926811027A68D268120952040A4387
:104868002A4913430B6127E03B68012B12D1274BE0
:104878001B6923F4C00323F4FE437A68926811028B
:104888007A6812695208013A52050A431F491343CC
:104898000B6111E01D4B1B6923F0C06323F4FE4339
:1048A8007A68926811027A6852695208013A520687
:1048B8000A43164913430B61144B1B68134A43F010
:1048C80080631360FCF75AFFB86009E0FCF756FFF5
:1048D8000246BB68D31A022B02D90323FB7305E0F7
:1048E8000A4B1B6803F00063002BEFD0FB7B002B07
:1048F80006D1064B1A697B689B69044913430B610F
:10490800FB7B18461037BD4680BD00BF0010024033
:1049180080B584B000AF786039600023FB736A4BC0
:10492800DB6803F00303002B18D0674BDB6803F048
:1049380003027B681B689A420DD17B681B68002BB9
:1049480009D0614BDB681B0903F007035A1C7B681D
:104958005B689A4247D00123FB7344E07B681B687D
:10496800032B18D0032B25D8012B02D0022B09D0FA
:1049780020E0554B1B6803F00203002B1DD10123D7
:10498800FB731AE0504B1B6803F48063002B16D1AD
:104998000123FB7313E04C4B1B6803F40033002B1B
:1049A8000FD1494B1B6803F48023002B09D1012345
:1049B800FB7306E00123FB7304E000BF02E000BFC5
:1049C80000E000BFFB7B002B0DD13F4BDB6823F0E1
:1049D80073027B6819687B685B68013B1B010B43AA
:1049E80039491343CB60FB7B002B67D1364B1B68DF
:1049F800354A23F080531360FCF7C0FEB86009E025
:104A0800FCF7BCFE0246BB68D31A022B02D903236B
:104A1800FB7305E02C4B1B6803F00053002BEFD110
:104A2800FB7B002B4AD13B68002B11D1264B5B69DD
:104A380023F41F3323F440737A68926811027A686A
:104A4800D268120952040A431F4913434B6111E00B
:104A58001D4B5B6923F0C06323F4FE437A689268B8
:104A680011027A6812695208013A52060A43164935
:104A780013434B61144B1B68134A43F08053136074
:104A8800FCF77CFEB86009E0FCF778FE0246BB68DC
:104A9800D31A022B02D90323FB7305E00A4B1B68C8
:104AA80003F00053002BEFD0FB7B002B06D1064B05
:104AB8005A697B685B69044913434B61FB7B184661
:104AC8001037BD4680BD00BF0010024080B582B0DF
:104AD80000AF78607B68002B01D1012340E07B6840
:104AE800DB6F002B06D17B68002283F8782078687A
:104AF800FCF736FC7B682422DA677B681B681A6837
:104B08007B681B6822F001021A607B685B6A002BD5
:104B180002D0786800F0E0FA786800F025F80346DB
:104B2800012B01D101231BE07B681B685A687B6855
:104B38001B6822F490425A607B681B689A687B68FD
:104B48001B6822F02A029A607B681B681A687B68D7
:104B58001B6842F001021A60786800F05FFB0346A8
:104B680018460837BD4680BD2DE9B04F8AB000AF62
:104B7800F860002387F82230FB689A68FB681B6995
:104B88001A43FB685B691A43FB68DB6913437B6262
:104B9800FB681B681A68A44B1340FA681268796AA4
:104BA8000B431360FB681B685B6823F44051FB6888
:104BB800DA68FB681B680A435A60FB689B697B627A
:104BC800FB681B68994A934204D0FB681B6A7A6A9F
:104BD80013437B62FB681B689B6823F43061FB68A6
:104BE8001B687A6A0A439A60FB681B68904A93427A
:104BF80026D1904BD3F8883003F00303032B1BD83E
:104C080001A252F823F000BF214C0008314C0008E3
:104C1800294C0008394C0008012387F8233016E195
:104C2800022387F8233012E1042387F823300EE1AA
:104C3800082387F823300AE1102387F8233006E198
:104C4800FB681B687C4A934238D17A4BD3F888308A
:104C580003F00C030C2B2DD801A252F823F000BF4F
:104C68009D4C0008BD4C0008BD4C0008BD4C000818
:104C7800AD4C0008BD4C0008BD4C0008BD4C0008F8
:104C8800A54C0008BD4C0008BD4C0008BD4C0008F0
:104C9800B54C0008002387F82330D8E0022387F8B2
:104CA8002330D4E0042387F82330D0E0082387F8A2
:104CB8002330CCE0102387F82330C8E0FB681B685A
:104CC8005E4A934225D15B4BD3F8883003F030031A
:104CD800302B16D0302B18D8202B0AD0202B14D8E4
:104CE800002B02D0102B08D00FE0002387F82330C8
:104CF800ADE0022387F82330A9E0042387F82330A6
:104D0800A5E0082387F82330A1E0102387F8233093
:104D18009DE0FB681B684A4A934225D1454BD3F86E
:104D2800883003F0C003C02B16D0C02B18D8802BB6
:104D38000AD0802B14D8002B02D0402B08D00FE0CB
:104D4800002387F8233082E0022387F823307EE0AF
:104D5800042387F823307AE0082387F8233076E0A5
:104D6800102387F8233072E0FB681B68354A9342AA
:104D78002AD1304BD3F8883003F44073B3F5407F21
:104D88001AD0B3F5407F1BD8B3F5007F0CD0B3F52C
:104D9800007F15D8002B03D0B3F5807F08D00FE033
:104DA800002387F8233052E0022387F823304EE0AF
:104DB800042387F823304AE0082387F8233046E0A5
:104DC800102387F8233042E0FB681B68174A934298
:104DD8003AD1184BD3F8883003F44063B3F5406FE9
:104DE8001AD0B3F5406F1BD8B3F5006F0CD0B3F5EC
:104DF800006F15D8002B03D0B3F5806F08D00FE0F3
:104E0800002387F8233022E0022387F823301EE0AE
:104E1800042387F823301AE0082387F8233016E0A4
:104E2800102387F8233012E0F369FFEF0080004079
:104E38000038014000100240004400400048004093
:104E4800004C004000500040102387F82330FB68D6
:104E58001B689F4A93427AD197F82330082B24D8AD
:104E680001A252F823F000BF954E0008B34E000887
:104E78009D4E0008B34E0008A34E0008B34E00082C
:104E8800B34E0008B34E0008AB4E0008FFF7D6F843
:104E9800F86110E08F4BFB610DE0FFF737F8F86120
:104EA80009E04FF40043FB6105E00023FB610123A7
:104EB80087F8223000BFFB69002B00F0FB80FB68FD
:104EC8005A6813465B001344FA699A4205D3FB6893
:104ED8005B681B03FA699A4203D9012387F82230D9
:104EE800E8E0FB6900221C4615464FF000024FF02F
:104EF80000032B0243EA14632202F968496849084F
:104F080000208846814612EB080A43EB090BFB6830
:104F18005B6800223B607A60D7E900235046594617
:104F2800FBF74EF902460B461346BB61BB69B3F566
:104F3800407F08D3BB69B3F5801F04D2FB681B68A8
:104F4800BA69DA60B6E0012387F82230B2E0FB687C
:104F5800DB69B3F5004F5ED197F82330082B28D8CA
:104F680001A252F823F000BF954F00089D4F00089A
:104F7800A54F0008BB4F0008AB4F0008BB4F000807
:104F8800BB4F0008BB4F0008B34F0008FFF756F8A7
:104F9800F86114E0FFF768F8F86110E04D4BFB6129
:104FA8000DE0FEF7B3FFF86109E04FF40043FB6141
:104FB80005E00023FB61012387F8223000BFFB696D
:104FC800002B77D0FB695A00FB685B685B081A44C2
:104FD800FB685B68B2FBF3F3BB61BB690F2B16D9A7
:104FE800BB69B3F5803F12D2BB699BB223F00F03B4
:104FF800FB82BB695B089BB203F007039AB2FB8A8A
:105008001343FB82FB681B68FA8ADA6052E00123CB
:1050180087F822304EE097F82330082B27D801A2D2
:1050280052F823F051500008595000086150000808
:10503800775000086750000877500008775000083C
:10504800775000086F500008FEF7F8FFF86114E089
:10505800FFF70AF8F86110E01E4BFB610DE0FEF760
:1050680055FFF86109E04FF40043FB6105E00023B8
:10507800FB61012387F8223000BFFB69002B19D0A0
:10508800FB685B685A08FB691A44FB685B68B2FBFB
:10509800F3F3BB61BB690F2B09D9BB69B3F5803F3B
:1050A80005D2BB699AB2FB681B68DA6002E001238B
:1050B80087F82230FB6800229A66FB680022DA66CD
:1050C80097F8223018462837BD46BDE8B08F00BF94
:1050D800008000400024F40080B483B000AF786002
:1050E8007B685B6A03F00803002B0AD07B681B68A7
:1050F8005B6823F400417B685A6B7B681B680A4332
:105108005A607B685B6A03F00103002B0AD07B6856
:105118001B685B6823F400317B689A6A7B681B68AC
:105128000A435A607B685B6A03F00203002B0AD0CB
:105138007B681B685B6823F480317B68DA6A7B686C
:105148001B680A435A607B685B6A03F00403002B00
:105158000AD07B681B685B6823F480217B681A6B24
:105168007B681B680A435A607B685B6A03F010031C
:10517800002B0AD07B681B689B6823F480517B68EE
:105188009A6B7B681B680A439A607B685B6A03F0CA
:105198002003002B0AD07B681B689B6823F400510E
:1051A8007B68DA6B7B681B680A439A607B685B6A7A
:1051B80003F04003002B1AD07B681B685B6823F45C
:1051C80080117B681A6C7B681B680A435A607B688D
:1051D8001B6CB3F5801F0AD17B681B685B6823F4DE
:1051E800C0017B685A6C7B681B680A435A607B68FD
:1051F8005B6A03F08003002B0AD07B681B685B683E
:1052080023F400217B689A6C7B681B680A435A6008
:1052180000BF0C37BD465DF8047B704780B598B079
:1052280002AF78607B680022C3F88420FCF7A6FAF6
:1052380078657B681B681B6803F00803082B2ED170
:105248006FF07E4300937B6D00224FF40011786865
:1052580000F08CF80346002B21D07B681B68BB63E9
:10526800BB6B53E8003F7B637B6B23F080033B659C
:105278007B681B681A463B6D7B643A64396C7A6CB0
:1052880041E80023FB63FB6B002BE6D17B682022FF
:10529800DA677B68002283F87820032362E07B6862
:1052A8001B681B6803F00403042B49D16FF07E438D
:1052B80000937B6D00224FF48001786800F056F867
:1052C8000346002B3CD07B681B687B627B6A53E8F3
:1052D800003F3B623B6A23F49073FB647B681B6866
:1052E8001A46FB6C3B63FA62F96A3A6B41E80023A1
:1052F800BB62BB6A002BE6D17B681B6808333B6145
:105308003B6953E8003FFB60FB6823F00103BB6483
:105318007B681B680833BA6CFA61BB61B969FA69C2
:1053280041E800237B617B69002BE5D17B68202263
:10533800C3F880207B68002283F87820032311E0DB
:105348007B682022DA677B682022C3F880207B688C
:1053580000221A667B6800225A667B68002283F85E
:105368007820002318465837BD4680BD80B584B0E4
:1053780000AFF860B9603B601346FB714FE0BB6952
:10538800B3F1FF3F4BD0FCF7F9F902463B68D31A5B
:10539800BA699A4202D3BB69002B01D103234EE0BC
:1053A800FB681B681B6803F00403002B37D0BB683D
:1053B800802B34D0BB68402B31D0FB681B68DB697D
:1053C80003F00803082B10D1FB681B6808221A6237
:1053D800F86800F038F8FB680822C3F88420FB68F6
:1053E800002283F87820012329E0FB681B68DB6929
:1053F80003F40063B3F5006F11D1FB681B684FF429
:1054080000621A62F86800F01EF8FB682022C3F8F0
:105418008420FB68002283F8782003230FE0FB68D0
:105428001B68DA69BB681340BA689A420CBF01234B
:105438000023DBB21A46FB799A42A0D00023184613
:105448001037BD4680BD80B495B000AF78607B68EA
:105458001B687B637B6B53E8003F3B633B6B23F428
:105468009073FB647B681B681A46FB6C3B64FA63A9
:10547800F96B3A6C41E80023BB63BB6B002BE6D1A8
:105488007B681B6808333B623B6A53E8003FFB615B
:10549800FB6923F00103BB647B681B680833BA6CA3
:1054A800FA62BB62B96AFA6A41E800237B627B6AE6
:1054B800002BE5D17B681B6E012B18D17B681B681C
:1054C800FB60FB6853E8003FBB60BB6823F0100338
:1054D8007B647B681B681A467B6CBB617A6179695F
:1054E800BA6941E800233B613B69002BE6D17B6840
:1054F8002022C3F880207B6800221A667B6800227D
:105508009A6600BF5437BD465DF8047B7047024475
:105518000346934200D1704703F8011BF9E70000E6
:1055280070B50D4D0D4C641BA4100026A64209D180
:105538000B4D0C4C00F018F8641BA4100026A64272
:1055480005D170BD55F8043B98470136EEE755F88C
:10555800043B98470136F2E7F4550008F455000873
:10556800F4550008F8550008F8B500BFF8BC08BCA9
:105578009E467047F8B500BFF8BC08BC9E46704709
:105588000100000064000000B80B000001010000E9
:1055980032000000313233343500000000000000D2
:1055A80000000000010203040607080900000000CB
:1055B80001020304A0860100400D0300801A0600C2
:1055C80000350C0040420F0080841E0000093D0099
:1055D80000127A000024F40000366E010048E80149
:0455E800006CDC0275
:0855EC000CACFF7F0100000080
:0455F400AD010008FD
:0455F800890100081D
:1055FC00010101010101010100093D001000000041
:04560C000100000099
:040000050800165188
:00000001FF
